{
  "_format": "hh-sol-artifact-1",
  "contractName": "CommunityNFT",
  "sourceName": "contracts/nft.sol",
  "abi": [
    {
      "inputs": [
        {
          "internalType": "uint256",
          "name": "tokenSupply",
          "type": "uint256"
        }
      ],
      "stateMutability": "nonpayable",
      "type": "constructor"
    },
    {
      "anonymous": false,
      "inputs": [
        {
          "indexed": true,
          "internalType": "address",
          "name": "owner",
          "type": "address"
        },
        {
          "indexed": true,
          "internalType": "address",
          "name": "approved",
          "type": "address"
        },
        {
          "indexed": true,
          "internalType": "uint256",
          "name": "tokenId",
          "type": "uint256"
        }
      ],
      "name": "Approval",
      "type": "event"
    },
    {
      "anonymous": false,
      "inputs": [
        {
          "indexed": true,
          "internalType": "address",
          "name": "owner",
          "type": "address"
        },
        {
          "indexed": true,
          "internalType": "address",
          "name": "operator",
          "type": "address"
        },
        {
          "indexed": false,
          "internalType": "bool",
          "name": "approved",
          "type": "bool"
        }
      ],
      "name": "ApprovalForAll",
      "type": "event"
    },
    {
      "anonymous": false,
      "inputs": [
        {
          "indexed": true,
          "internalType": "address",
          "name": "previousOwner",
          "type": "address"
        },
        {
          "indexed": true,
          "internalType": "address",
          "name": "newOwner",
          "type": "address"
        }
      ],
      "name": "OwnershipTransferred",
      "type": "event"
    },
    {
      "anonymous": false,
      "inputs": [
        {
          "indexed": true,
          "internalType": "address",
          "name": "from",
          "type": "address"
        },
        {
          "indexed": true,
          "internalType": "address",
          "name": "to",
          "type": "address"
        },
        {
          "indexed": true,
          "internalType": "uint256",
          "name": "tokenId",
          "type": "uint256"
        }
      ],
      "name": "Transfer",
      "type": "event"
    },
    {
      "inputs": [],
      "name": "MAX_TOTAL_SUPPLY",
      "outputs": [
        {
          "internalType": "uint256",
          "name": "",
          "type": "uint256"
        }
      ],
      "stateMutability": "view",
      "type": "function"
    },
    {
      "inputs": [],
      "name": "adminMerkleRoot",
      "outputs": [
        {
          "internalType": "bytes32",
          "name": "",
          "type": "bytes32"
        }
      ],
      "stateMutability": "view",
      "type": "function"
    },
    {
      "inputs": [
        {
          "internalType": "address",
          "name": "to",
          "type": "address"
        },
        {
          "internalType": "uint256",
          "name": "tokenId",
          "type": "uint256"
        }
      ],
      "name": "approve",
      "outputs": [],
      "stateMutability": "nonpayable",
      "type": "function"
    },
    {
      "inputs": [
        {
          "internalType": "address",
          "name": "owner",
          "type": "address"
        }
      ],
      "name": "balanceOf",
      "outputs": [
        {
          "internalType": "uint256",
          "name": "",
          "type": "uint256"
        }
      ],
      "stateMutability": "view",
      "type": "function"
    },
    {
      "inputs": [],
      "name": "contractURI",
      "outputs": [
        {
          "internalType": "string",
          "name": "",
          "type": "string"
        }
      ],
      "stateMutability": "view",
      "type": "function"
    },
    {
      "inputs": [
        {
          "internalType": "uint256",
          "name": "tokenId",
          "type": "uint256"
        }
      ],
      "name": "getApproved",
      "outputs": [
        {
          "internalType": "address",
          "name": "",
          "type": "address"
        }
      ],
      "stateMutability": "view",
      "type": "function"
    },
    {
      "inputs": [],
      "name": "getBaseURI",
      "outputs": [
        {
          "internalType": "string",
          "name": "",
          "type": "string"
        }
      ],
      "stateMutability": "view",
      "type": "function"
    },
    {
      "inputs": [],
      "name": "getContractURI",
      "outputs": [
        {
          "internalType": "string",
          "name": "",
          "type": "string"
        }
      ],
      "stateMutability": "view",
      "type": "function"
    },
    {
      "inputs": [],
      "name": "getLastTokenId",
      "outputs": [
        {
          "internalType": "uint256",
          "name": "",
          "type": "uint256"
        }
      ],
      "stateMutability": "view",
      "type": "function"
    },
    {
      "inputs": [
        {
          "internalType": "address",
          "name": "owner",
          "type": "address"
        },
        {
          "internalType": "address",
          "name": "operator",
          "type": "address"
        }
      ],
      "name": "isApprovedForAll",
      "outputs": [
        {
          "internalType": "bool",
          "name": "",
          "type": "bool"
        }
      ],
      "stateMutability": "view",
      "type": "function"
    },
    {
      "inputs": [],
      "name": "mint",
      "outputs": [],
      "stateMutability": "payable",
      "type": "function"
    },
    {
      "inputs": [],
      "name": "name",
      "outputs": [
        {
          "internalType": "string",
          "name": "",
          "type": "string"
        }
      ],
      "stateMutability": "view",
      "type": "function"
    },
    {
      "inputs": [],
      "name": "numReservedTokens",
      "outputs": [
        {
          "internalType": "uint256",
          "name": "",
          "type": "uint256"
        }
      ],
      "stateMutability": "view",
      "type": "function"
    },
    {
      "inputs": [],
      "name": "owner",
      "outputs": [
        {
          "internalType": "address",
          "name": "",
          "type": "address"
        }
      ],
      "stateMutability": "view",
      "type": "function"
    },
    {
      "inputs": [
        {
          "internalType": "uint256",
          "name": "tokenId",
          "type": "uint256"
        }
      ],
      "name": "ownerOf",
      "outputs": [
        {
          "internalType": "address",
          "name": "",
          "type": "address"
        }
      ],
      "stateMutability": "view",
      "type": "function"
    },
    {
      "inputs": [],
      "name": "renounceOwnership",
      "outputs": [],
      "stateMutability": "nonpayable",
      "type": "function"
    },
    {
      "inputs": [
        {
          "internalType": "address",
          "name": "from",
          "type": "address"
        },
        {
          "internalType": "address",
          "name": "to",
          "type": "address"
        },
        {
          "internalType": "uint256",
          "name": "tokenId",
          "type": "uint256"
        }
      ],
      "name": "safeTransferFrom",
      "outputs": [],
      "stateMutability": "nonpayable",
      "type": "function"
    },
    {
      "inputs": [
        {
          "internalType": "address",
          "name": "from",
          "type": "address"
        },
        {
          "internalType": "address",
          "name": "to",
          "type": "address"
        },
        {
          "internalType": "uint256",
          "name": "tokenId",
          "type": "uint256"
        },
        {
          "internalType": "bytes",
          "name": "data",
          "type": "bytes"
        }
      ],
      "name": "safeTransferFrom",
      "outputs": [],
      "stateMutability": "nonpayable",
      "type": "function"
    },
    {
      "inputs": [
        {
          "internalType": "bytes32",
          "name": "merkleRoot",
          "type": "bytes32"
        }
      ],
      "name": "setAdminMerkleRoot",
      "outputs": [],
      "stateMutability": "nonpayable",
      "type": "function"
    },
    {
      "inputs": [
        {
          "internalType": "address",
          "name": "operator",
          "type": "address"
        },
        {
          "internalType": "bool",
          "name": "approved",
          "type": "bool"
        }
      ],
      "name": "setApprovalForAll",
      "outputs": [],
      "stateMutability": "nonpayable",
      "type": "function"
    },
    {
      "inputs": [
        {
          "internalType": "string",
          "name": "_baseURI",
          "type": "string"
        }
      ],
      "name": "setBaseURI",
      "outputs": [],
      "stateMutability": "nonpayable",
      "type": "function"
    },
    {
      "inputs": [
        {
          "internalType": "string",
          "name": "_collectionURI",
          "type": "string"
        }
      ],
      "name": "setCollectionURI",
      "outputs": [],
      "stateMutability": "nonpayable",
      "type": "function"
    },
    {
      "inputs": [
        {
          "internalType": "bytes4",
          "name": "interfaceId",
          "type": "bytes4"
        }
      ],
      "name": "supportsInterface",
      "outputs": [
        {
          "internalType": "bool",
          "name": "",
          "type": "bool"
        }
      ],
      "stateMutability": "view",
      "type": "function"
    },
    {
      "inputs": [],
      "name": "symbol",
      "outputs": [
        {
          "internalType": "string",
          "name": "",
          "type": "string"
        }
      ],
      "stateMutability": "view",
      "type": "function"
    },
    {
      "inputs": [
        {
          "internalType": "uint256",
          "name": "tokenId",
          "type": "uint256"
        }
      ],
      "name": "tokenURI",
      "outputs": [
        {
          "internalType": "string",
          "name": "",
          "type": "string"
        }
      ],
      "stateMutability": "view",
      "type": "function"
    },
    {
      "inputs": [
        {
          "internalType": "address",
          "name": "from",
          "type": "address"
        },
        {
          "internalType": "address",
          "name": "to",
          "type": "address"
        },
        {
          "internalType": "uint256",
          "name": "tokenId",
          "type": "uint256"
        }
      ],
      "name": "transferFrom",
      "outputs": [],
      "stateMutability": "nonpayable",
      "type": "function"
    },
    {
      "inputs": [
        {
          "internalType": "address",
          "name": "newOwner",
          "type": "address"
        }
      ],
      "name": "transferOwnership",
      "outputs": [],
      "stateMutability": "nonpayable",
      "type": "function"
    },
    {
      "inputs": [],
      "name": "withdraw",
      "outputs": [],
      "stateMutability": "nonpayable",
      "type": "function"
    },
    {
      "inputs": [
        {
          "internalType": "contract IERC20",
          "name": "token",
          "type": "address"
        }
      ],
      "name": "withdrawTokens",
      "outputs": [],
      "stateMutability": "nonpayable",
      "type": "function"
    },
    {
      "stateMutability": "payable",
      "type": "receive"
    }
  ],
  "bytecode": "0x60806040523480156200001157600080fd5b50604051620038f4380380620038f48339818101604052810190620000379190620002a2565b6040518060400160405280600c81526020017f436f6d6d756e6974794e465400000000000000000000000000000000000000008152506040518060400160405280600481526020017f434e4654000000000000000000000000000000000000000000000000000000008152508160009080519060200190620000bb929190620001db565b508060019080519060200190620000d4929190620001db565b505050620000f7620000eb6200010d60201b60201c565b6200011560201b60201c565b600160078190555080600d819055505062000357565b600033905090565b6000600660009054906101000a900473ffffffffffffffffffffffffffffffffffffffff16905081600660006101000a81548173ffffffffffffffffffffffffffffffffffffffff021916908373ffffffffffffffffffffffffffffffffffffffff1602179055508173ffffffffffffffffffffffffffffffffffffffff168173ffffffffffffffffffffffffffffffffffffffff167f8be0079c531659141344cd1fd0a4f28419497f9722a3daafe3b4186f6b6457e060405160405180910390a35050565b828054620001e990620002d8565b90600052602060002090601f0160209004810192826200020d576000855562000259565b82601f106200022857805160ff191683800117855562000259565b8280016001018555821562000259579182015b82811115620002585782518255916020019190600101906200023b565b5b5090506200026891906200026c565b5090565b5b80821115620002875760008160009055506001016200026d565b5090565b6000815190506200029c816200033d565b92915050565b600060208284031215620002b557600080fd5b6000620002c5848285016200028b565b91505092915050565b6000819050919050565b60006002820490506001821680620002f157607f821691505b602082108114156200030857620003076200030e565b5b50919050565b7f4e487b7100000000000000000000000000000000000000000000000000000000600052602260045260246000fd5b6200034881620002ce565b81146200035457600080fd5b50565b61358d80620003676000396000f3fe6080604052600436106101c65760003560e01c806355f804b3116100f757806395d89b4111610095578063c87b56dd11610064578063c87b56dd146105f2578063e8a3d4851461062f578063e985e9c51461065a578063f2fde38b14610697576101cd565b806395d89b411461054a578063a22cb46514610575578063b58b79921461059e578063b88d4fde146105c9576101cd565b8063714c5398116100d1578063714c5398146104b2578063715018a6146104dd57806383c4c00d146104f45780638da5cb5b1461051f576101cd565b806355f804b31461040f5780636352211e1461043857806370a0823114610475576101cd565b80632639f4601161016457806337929eb41161013e57806337929eb41461037b5780633ccfd60b146103a657806342842e0e146103bd57806349df728c146103e6576101cd565b80632639f460146102fe5780632f2fe7211461032757806333039d3d14610350576101cd565b8063095ea7b3116101a0578063095ea7b31461027757806311e3dbca146102a05780631249c58b146102cb57806323b872dd146102d5576101cd565b806301ffc9a7146101d257806306fdde031461020f578063081812fc1461023a576101cd565b366101cd57005b600080fd5b3480156101de57600080fd5b506101f960048036038101906101f491906124dd565b6106c0565b6040516102069190612a5b565b60405180910390f35b34801561021b57600080fd5b506102246107a2565b6040516102319190612a91565b60405180910390f35b34801561024657600080fd5b50610261600480360381019061025c9190612599565b610834565b60405161026e91906129cb565b60405180910390f35b34801561028357600080fd5b5061029e6004803603810190610299919061244f565b61087a565b005b3480156102ac57600080fd5b506102b5610992565b6040516102c29190612cb3565b60405180910390f35b6102d3610998565b005b3480156102e157600080fd5b506102fc60048036038101906102f79190612349565b610a59565b005b34801561030a57600080fd5b5061032560048036038101906103209190612558565b610ab9565b005b34801561033357600080fd5b5061034e600480360381019061034991906124b4565b610adb565b005b34801561035c57600080fd5b50610365610aed565b6040516103729190612cb3565b60405180910390f35b34801561038757600080fd5b50610390610af3565b60405161039d9190612a91565b60405180910390f35b3480156103b257600080fd5b506103bb610b85565b005b3480156103c957600080fd5b506103e460048036038101906103df9190612349565b610bdc565b005b3480156103f257600080fd5b5061040d6004803603810190610408919061252f565b610bfc565b005b34801561041b57600080fd5b5061043660048036038101906104319190612558565b610d23565b005b34801561044457600080fd5b5061045f600480360381019061045a9190612599565b610d45565b60405161046c91906129cb565b60405180910390f35b34801561048157600080fd5b5061049c600480360381019061049791906122e4565b610df7565b6040516104a99190612cb3565b60405180910390f35b3480156104be57600080fd5b506104c7610eaf565b6040516104d49190612a91565b60405180910390f35b3480156104e957600080fd5b506104f2610f41565b005b34801561050057600080fd5b50610509610f55565b6040516105169190612cb3565b60405180910390f35b34801561052b57600080fd5b50610534610f66565b60405161054191906129cb565b60405180910390f35b34801561055657600080fd5b5061055f610f90565b60405161056c9190612a91565b60405180910390f35b34801561058157600080fd5b5061059c60048036038101906105979190612413565b611022565b005b3480156105aa57600080fd5b506105b3611038565b6040516105c09190612a76565b60405180910390f35b3480156105d557600080fd5b506105f060048036038101906105eb9190612398565b61103e565b005b3480156105fe57600080fd5b5061061960048036038101906106149190612599565b6110a0565b6040516106269190612a91565b60405180910390f35b34801561063b57600080fd5b5061064461111c565b6040516106519190612a91565b60405180910390f35b34801561066657600080fd5b50610681600480360381019061067c919061230d565b6111ae565b60405161068e9190612a5b565b60405180910390f35b3480156106a357600080fd5b506106be60048036038101906106b991906122e4565b611242565b005b60007f80ac58cd000000000000000000000000000000000000000000000000000000007bffffffffffffffffffffffffffffffffffffffffffffffffffffffff1916827bffffffffffffffffffffffffffffffffffffffffffffffffffffffff1916148061078b57507f5b5e139f000000000000000000000000000000000000000000000000000000007bffffffffffffffffffffffffffffffffffffffffffffffffffffffff1916827bffffffffffffffffffffffffffffffffffffffffffffffffffffffff1916145b8061079b575061079a826112c6565b5b9050919050565b6060600080546107b190612f3a565b80601f01602080910402602001604051908101604052809291908181526020018280546107dd90612f3a565b801561082a5780601f106107ff5761010080835404028352916020019161082a565b820191906000526020600020905b81548152906001019060200180831161080d57829003601f168201915b5050505050905090565b600061083f82611330565b6004600083815260200190815260200160002060009054906101000a900473ffffffffffffffffffffffffffffffffffffffff169050919050565b600061088582610d45565b90508073ffffffffffffffffffffffffffffffffffffffff168373ffffffffffffffffffffffffffffffffffffffff1614156108f6576040517f08c379a00000000000000000000000000000000000000000000000000000000081526004016108ed90612c53565b60405180910390fd5b8073ffffffffffffffffffffffffffffffffffffffff1661091561137b565b73ffffffffffffffffffffffffffffffffffffffff16148061094457506109438161093e61137b565b6111ae565b5b610983576040517f08c379a000000000000000000000000000000000000000000000000000000000815260040161097a90612bd3565b60405180910390fd5b61098d8383611383565b505050565b600b5481565b600260075414156109de576040517f08c379a00000000000000000000000000000000000000000000000000000000081526004016109d590612c93565b60405180910390fd5b6002600781905550600d546109f3600861143c565b1115610a34576040517f08c379a0000000000000000000000000000000000000000000000000000000008152600401610a2b90612b73565b60405180910390fd5b610a4533610a4061144a565b611465565b610a4f6008611483565b6001600781905550565b610a6a610a6461137b565b82611499565b610aa9576040517f08c379a0000000000000000000000000000000000000000000000000000000008152600401610aa090612c73565b60405180910390fd5b610ab483838361152e565b505050565b610ac1611795565b80600a9080519060200190610ad79291906120b4565b5050565b610ae3611795565b80600c8190555050565b600d5481565b6060600a8054610b0290612f3a565b80601f0160208091040260200160405190810160405280929190818152602001828054610b2e90612f3a565b8015610b7b5780601f10610b5057610100808354040283529160200191610b7b565b820191906000526020600020905b815481529060010190602001808311610b5e57829003601f168201915b5050505050905090565b610b8d611795565b60004790503373ffffffffffffffffffffffffffffffffffffffff166108fc829081150290604051600060405180830381858888f19350505050158015610bd8573d6000803e3d6000fd5b5050565b610bf78383836040518060200160405280600081525061103e565b505050565b610c04611795565b60008173ffffffffffffffffffffffffffffffffffffffff166370a08231306040518263ffffffff1660e01b8152600401610c3f91906129cb565b60206040518083038186803b158015610c5757600080fd5b505afa158015610c6b573d6000803e3d6000fd5b505050506040513d601f19601f82011682018060405250810190610c8f91906125c2565b90508173ffffffffffffffffffffffffffffffffffffffff1663a9059cbb33836040518363ffffffff1660e01b8152600401610ccc929190612a32565b602060405180830381600087803b158015610ce657600080fd5b505af1158015610cfa573d6000803e3d6000fd5b505050506040513d601f19601f82011682018060405250810190610d1e919061248b565b505050565b610d2b611795565b8060099080519060200190610d419291906120b4565b5050565b6000806002600084815260200190815260200160002060009054906101000a900473ffffffffffffffffffffffffffffffffffffffff169050600073ffffffffffffffffffffffffffffffffffffffff168173ffffffffffffffffffffffffffffffffffffffff161415610dee576040517f08c379a0000000000000000000000000000000000000000000000000000000008152600401610de590612c33565b60405180910390fd5b80915050919050565b60008073ffffffffffffffffffffffffffffffffffffffff168273ffffffffffffffffffffffffffffffffffffffff161415610e68576040517f08c379a0000000000000000000000000000000000000000000000000000000008152600401610e5f90612b93565b60405180910390fd5b600360008373ffffffffffffffffffffffffffffffffffffffff1673ffffffffffffffffffffffffffffffffffffffff168152602001908152602001600020549050919050565b606060098054610ebe90612f3a565b80601f0160208091040260200160405190810160405280929190818152602001828054610eea90612f3a565b8015610f375780601f10610f0c57610100808354040283529160200191610f37565b820191906000526020600020905b815481529060010190602001808311610f1a57829003601f168201915b5050505050905090565b610f49611795565b610f536000611813565b565b6000610f61600861143c565b905090565b6000600660009054906101000a900473ffffffffffffffffffffffffffffffffffffffff16905090565b606060018054610f9f90612f3a565b80601f0160208091040260200160405190810160405280929190818152602001828054610fcb90612f3a565b80156110185780601f10610fed57610100808354040283529160200191611018565b820191906000526020600020905b815481529060010190602001808311610ffb57829003601f168201915b5050505050905090565b61103461102d61137b565b83836118d9565b5050565b600c5481565b61104f61104961137b565b83611499565b61108e576040517f08c379a000000000000000000000000000000000000000000000000000000000815260040161108590612c73565b60405180910390fd5b61109a84848484611a46565b50505050565b60606110ab82611aa2565b6110ea576040517f08c379a00000000000000000000000000000000000000000000000000000000081526004016110e190612bb3565b60405180910390fd5b60096110f583611b0e565b60405160200161110692919061299c565b6040516020818303038152906040529050919050565b6060600a805461112b90612f3a565b80601f016020809104026020016040519081016040528092919081815260200182805461115790612f3a565b80156111a45780601f10611179576101008083540402835291602001916111a4565b820191906000526020600020905b81548152906001019060200180831161118757829003601f168201915b5050505050905090565b6000600560008473ffffffffffffffffffffffffffffffffffffffff1673ffffffffffffffffffffffffffffffffffffffff16815260200190815260200160002060008373ffffffffffffffffffffffffffffffffffffffff1673ffffffffffffffffffffffffffffffffffffffff16815260200190815260200160002060009054906101000a900460ff16905092915050565b61124a611795565b600073ffffffffffffffffffffffffffffffffffffffff168173ffffffffffffffffffffffffffffffffffffffff1614156112ba576040517f08c379a00000000000000000000000000000000000000000000000000000000081526004016112b190612ad3565b60405180910390fd5b6112c381611813565b50565b60007f01ffc9a7000000000000000000000000000000000000000000000000000000007bffffffffffffffffffffffffffffffffffffffffffffffffffffffff1916827bffffffffffffffffffffffffffffffffffffffffffffffffffffffff1916149050919050565b61133981611aa2565b611378576040517f08c379a000000000000000000000000000000000000000000000000000000000815260040161136f90612c33565b60405180910390fd5b50565b600033905090565b816004600083815260200190815260200160002060006101000a81548173ffffffffffffffffffffffffffffffffffffffff021916908373ffffffffffffffffffffffffffffffffffffffff160217905550808273ffffffffffffffffffffffffffffffffffffffff166113f683610d45565b73ffffffffffffffffffffffffffffffffffffffff167f8c5be1e5ebec7d5bd14f71427d1e84f3dd0314c0f7b2291e5b200ac8c7c3b92560405160405180910390a45050565b600081600001549050919050565b60006114566008611483565b611460600861143c565b905090565b61147f828260405180602001604052806000815250611cbb565b5050565b6001816000016000828254019250508190555050565b6000806114a583610d45565b90508073ffffffffffffffffffffffffffffffffffffffff168473ffffffffffffffffffffffffffffffffffffffff1614806114e757506114e681856111ae565b5b8061152557508373ffffffffffffffffffffffffffffffffffffffff1661150d84610834565b73ffffffffffffffffffffffffffffffffffffffff16145b91505092915050565b8273ffffffffffffffffffffffffffffffffffffffff1661154e82610d45565b73ffffffffffffffffffffffffffffffffffffffff16146115a4576040517f08c379a000000000000000000000000000000000000000000000000000000000815260040161159b90612af3565b60405180910390fd5b600073ffffffffffffffffffffffffffffffffffffffff168273ffffffffffffffffffffffffffffffffffffffff161415611614576040517f08c379a000000000000000000000000000000000000000000000000000000000815260040161160b90612b33565b60405180910390fd5b61161f838383611d16565b61162a600082611383565b6001600360008573ffffffffffffffffffffffffffffffffffffffff1673ffffffffffffffffffffffffffffffffffffffff168152602001908152602001600020600082825461167a9190612e34565b925050819055506001600360008473ffffffffffffffffffffffffffffffffffffffff1673ffffffffffffffffffffffffffffffffffffffff16815260200190815260200160002060008282546116d19190612dad565b92505081905550816002600083815260200190815260200160002060006101000a81548173ffffffffffffffffffffffffffffffffffffffff021916908373ffffffffffffffffffffffffffffffffffffffff160217905550808273ffffffffffffffffffffffffffffffffffffffff168473ffffffffffffffffffffffffffffffffffffffff167fddf252ad1be2c89b69c2b068fc378daa952ba7f163c4a11628f55a4df523b3ef60405160405180910390a4611790838383611d1b565b505050565b61179d61137b565b73ffffffffffffffffffffffffffffffffffffffff166117bb610f66565b73ffffffffffffffffffffffffffffffffffffffff1614611811576040517f08c379a000000000000000000000000000000000000000000000000000000000815260040161180890612c13565b60405180910390fd5b565b6000600660009054906101000a900473ffffffffffffffffffffffffffffffffffffffff16905081600660006101000a81548173ffffffffffffffffffffffffffffffffffffffff021916908373ffffffffffffffffffffffffffffffffffffffff1602179055508173ffffffffffffffffffffffffffffffffffffffff168173ffffffffffffffffffffffffffffffffffffffff167f8be0079c531659141344cd1fd0a4f28419497f9722a3daafe3b4186f6b6457e060405160405180910390a35050565b8173ffffffffffffffffffffffffffffffffffffffff168373ffffffffffffffffffffffffffffffffffffffff161415611948576040517f08c379a000000000000000000000000000000000000000000000000000000000815260040161193f90612b53565b60405180910390fd5b80600560008573ffffffffffffffffffffffffffffffffffffffff1673ffffffffffffffffffffffffffffffffffffffff16815260200190815260200160002060008473ffffffffffffffffffffffffffffffffffffffff1673ffffffffffffffffffffffffffffffffffffffff16815260200190815260200160002060006101000a81548160ff0219169083151502179055508173ffffffffffffffffffffffffffffffffffffffff168373ffffffffffffffffffffffffffffffffffffffff167f17307eab39ab6107e8899845ad3d59bd9653f200f220920489ca2b5937696c3183604051611a399190612a5b565b60405180910390a3505050565b611a5184848461152e565b611a5d84848484611d20565b611a9c576040517f08c379a0000000000000000000000000000000000000000000000000000000008152600401611a9390612ab3565b60405180910390fd5b50505050565b60008073ffffffffffffffffffffffffffffffffffffffff166002600084815260200190815260200160002060009054906101000a900473ffffffffffffffffffffffffffffffffffffffff1673ffffffffffffffffffffffffffffffffffffffff1614159050919050565b60606000821415611b56576040518060400160405280600181526020017f30000000000000000000000000000000000000000000000000000000000000008152509050611cb6565b600082905060005b60008214611b88578080611b7190612f9d565b915050600a82611b819190612e03565b9150611b5e565b60008167ffffffffffffffff811115611bca577f4e487b7100000000000000000000000000000000000000000000000000000000600052604160045260246000fd5b6040519080825280601f01601f191660200182016040528015611bfc5781602001600182028036833780820191505090505b5090505b60008514611caf57600182611c159190612e34565b9150600a85611c249190612fe6565b6030611c309190612dad565b60f81b818381518110611c6c577f4e487b7100000000000000000000000000000000000000000000000000000000600052603260045260246000fd5b60200101907effffffffffffffffffffffffffffffffffffffffffffffffffffffffffffff1916908160001a905350600a85611ca89190612e03565b9450611c00565b8093505050505b919050565b611cc58383611eb7565b611cd26000848484611d20565b611d11576040517f08c379a0000000000000000000000000000000000000000000000000000000008152600401611d0890612ab3565b60405180910390fd5b505050565b505050565b505050565b6000611d418473ffffffffffffffffffffffffffffffffffffffff16612091565b15611eaa578373ffffffffffffffffffffffffffffffffffffffff1663150b7a02611d6a61137b565b8786866040518563ffffffff1660e01b8152600401611d8c94939291906129e6565b602060405180830381600087803b158015611da657600080fd5b505af1925050508015611dd757506040513d601f19601f82011682018060405250810190611dd49190612506565b60015b611e5a573d8060008114611e07576040519150601f19603f3d011682016040523d82523d6000602084013e611e0c565b606091505b50600081511415611e52576040517f08c379a0000000000000000000000000000000000000000000000000000000008152600401611e4990612ab3565b60405180910390fd5b805181602001fd5b63150b7a0260e01b7bffffffffffffffffffffffffffffffffffffffffffffffffffffffff1916817bffffffffffffffffffffffffffffffffffffffffffffffffffffffff191614915050611eaf565b600190505b949350505050565b600073ffffffffffffffffffffffffffffffffffffffff168273ffffffffffffffffffffffffffffffffffffffff161415611f27576040517f08c379a0000000000000000000000000000000000000000000000000000000008152600401611f1e90612bf3565b60405180910390fd5b611f3081611aa2565b15611f70576040517f08c379a0000000000000000000000000000000000000000000000000000000008152600401611f6790612b13565b60405180910390fd5b611f7c60008383611d16565b6001600360008473ffffffffffffffffffffffffffffffffffffffff1673ffffffffffffffffffffffffffffffffffffffff1681526020019081526020016000206000828254611fcc9190612dad565b92505081905550816002600083815260200190815260200160002060006101000a81548173ffffffffffffffffffffffffffffffffffffffff021916908373ffffffffffffffffffffffffffffffffffffffff160217905550808273ffffffffffffffffffffffffffffffffffffffff16600073ffffffffffffffffffffffffffffffffffffffff167fddf252ad1be2c89b69c2b068fc378daa952ba7f163c4a11628f55a4df523b3ef60405160405180910390a461208d60008383611d1b565b5050565b6000808273ffffffffffffffffffffffffffffffffffffffff163b119050919050565b8280546120c090612f3a565b90600052602060002090601f0160209004810192826120e25760008555612129565b82601f106120fb57805160ff1916838001178555612129565b82800160010185558215612129579182015b8281111561212857825182559160200191906001019061210d565b5b509050612136919061213a565b5090565b5b8082111561215357600081600090555060010161213b565b5090565b600061216a61216584612cf3565b612cce565b90508281526020810184848401111561218257600080fd5b61218d848285612ef8565b509392505050565b60006121a86121a384612d24565b612cce565b9050828152602081018484840111156121c057600080fd5b6121cb848285612ef8565b509392505050565b6000813590506121e2816134cd565b92915050565b6000813590506121f7816134e4565b92915050565b60008151905061220c816134e4565b92915050565b600081359050612221816134fb565b92915050565b60008135905061223681613512565b92915050565b60008151905061224b81613512565b92915050565b600082601f83011261226257600080fd5b8135612272848260208601612157565b91505092915050565b60008135905061228a81613529565b92915050565b600082601f8301126122a157600080fd5b81356122b1848260208601612195565b91505092915050565b6000813590506122c981613540565b92915050565b6000815190506122de81613540565b92915050565b6000602082840312156122f657600080fd5b6000612304848285016121d3565b91505092915050565b6000806040838503121561232057600080fd5b600061232e858286016121d3565b925050602061233f858286016121d3565b9150509250929050565b60008060006060848603121561235e57600080fd5b600061236c868287016121d3565b935050602061237d868287016121d3565b925050604061238e868287016122ba565b9150509250925092565b600080600080608085870312156123ae57600080fd5b60006123bc878288016121d3565b94505060206123cd878288016121d3565b93505060406123de878288016122ba565b925050606085013567ffffffffffffffff8111156123fb57600080fd5b61240787828801612251565b91505092959194509250565b6000806040838503121561242657600080fd5b6000612434858286016121d3565b9250506020612445858286016121e8565b9150509250929050565b6000806040838503121561246257600080fd5b6000612470858286016121d3565b9250506020612481858286016122ba565b9150509250929050565b60006020828403121561249d57600080fd5b60006124ab848285016121fd565b91505092915050565b6000602082840312156124c657600080fd5b60006124d484828501612212565b91505092915050565b6000602082840312156124ef57600080fd5b60006124fd84828501612227565b91505092915050565b60006020828403121561251857600080fd5b60006125268482850161223c565b91505092915050565b60006020828403121561254157600080fd5b600061254f8482850161227b565b91505092915050565b60006020828403121561256a57600080fd5b600082013567ffffffffffffffff81111561258457600080fd5b61259084828501612290565b91505092915050565b6000602082840312156125ab57600080fd5b60006125b9848285016122ba565b91505092915050565b6000602082840312156125d457600080fd5b60006125e2848285016122cf565b91505092915050565b6125f481612e68565b82525050565b61260381612e7a565b82525050565b61261281612e86565b82525050565b600061262382612d6a565b61262d8185612d80565b935061263d818560208601612f07565b612646816130d3565b840191505092915050565b600061265c82612d75565b6126668185612d91565b9350612676818560208601612f07565b61267f816130d3565b840191505092915050565b600061269582612d75565b61269f8185612da2565b93506126af818560208601612f07565b80840191505092915050565b600081546126c881612f3a565b6126d28186612da2565b945060018216600081146126ed57600181146126fe57612731565b60ff19831686528186019350612731565b61270785612d55565b60005b838110156127295781548189015260018201915060208101905061270a565b838801955050505b50505092915050565b6000612747603283612d91565b9150612752826130e4565b604082019050919050565b600061276a602683612d91565b915061277582613133565b604082019050919050565b600061278d602583612d91565b915061279882613182565b604082019050919050565b60006127b0601c83612d91565b91506127bb826131d1565b602082019050919050565b60006127d3602483612d91565b91506127de826131fa565b604082019050919050565b60006127f6601983612d91565b915061280182613249565b602082019050919050565b6000612819601d83612d91565b915061282482613272565b602082019050919050565b600061283c602983612d91565b91506128478261329b565b604082019050919050565b600061285f601283612d91565b915061286a826132ea565b602082019050919050565b6000612882603e83612d91565b915061288d82613313565b604082019050919050565b60006128a5602083612d91565b91506128b082613362565b602082019050919050565b60006128c8602083612d91565b91506128d38261338b565b602082019050919050565b60006128eb601883612d91565b91506128f6826133b4565b602082019050919050565b600061290e602183612d91565b9150612919826133dd565b604082019050919050565b6000612931602e83612d91565b915061293c8261342c565b604082019050919050565b6000612954601f83612d91565b915061295f8261347b565b602082019050919050565b6000612977600183612da2565b9150612982826134a4565b600182019050919050565b61299681612eee565b82525050565b60006129a882856126bb565b91506129b38261296a565b91506129bf828461268a565b91508190509392505050565b60006020820190506129e060008301846125eb565b92915050565b60006080820190506129fb60008301876125eb565b612a0860208301866125eb565b612a15604083018561298d565b8181036060830152612a278184612618565b905095945050505050565b6000604082019050612a4760008301856125eb565b612a54602083018461298d565b9392505050565b6000602082019050612a7060008301846125fa565b92915050565b6000602082019050612a8b6000830184612609565b92915050565b60006020820190508181036000830152612aab8184612651565b905092915050565b60006020820190508181036000830152612acc8161273a565b9050919050565b60006020820190508181036000830152612aec8161275d565b9050919050565b60006020820190508181036000830152612b0c81612780565b9050919050565b60006020820190508181036000830152612b2c816127a3565b9050919050565b60006020820190508181036000830152612b4c816127c6565b9050919050565b60006020820190508181036000830152612b6c816127e9565b9050919050565b60006020820190508181036000830152612b8c8161280c565b9050919050565b60006020820190508181036000830152612bac8161282f565b9050919050565b60006020820190508181036000830152612bcc81612852565b9050919050565b60006020820190508181036000830152612bec81612875565b9050919050565b60006020820190508181036000830152612c0c81612898565b9050919050565b60006020820190508181036000830152612c2c816128bb565b9050919050565b60006020820190508181036000830152612c4c816128de565b9050919050565b60006020820190508181036000830152612c6c81612901565b9050919050565b60006020820190508181036000830152612c8c81612924565b9050919050565b60006020820190508181036000830152612cac81612947565b9050919050565b6000602082019050612cc8600083018461298d565b92915050565b6000612cd8612ce9565b9050612ce48282612f6c565b919050565b6000604051905090565b600067ffffffffffffffff821115612d0e57612d0d6130a4565b5b612d17826130d3565b9050602081019050919050565b600067ffffffffffffffff821115612d3f57612d3e6130a4565b5b612d48826130d3565b9050602081019050919050565b60008190508160005260206000209050919050565b600081519050919050565b600081519050919050565b600082825260208201905092915050565b600082825260208201905092915050565b600081905092915050565b6000612db882612eee565b9150612dc383612eee565b9250827fffffffffffffffffffffffffffffffffffffffffffffffffffffffffffffffff03821115612df857612df7613017565b5b828201905092915050565b6000612e0e82612eee565b9150612e1983612eee565b925082612e2957612e28613046565b5b828204905092915050565b6000612e3f82612eee565b9150612e4a83612eee565b925082821015612e5d57612e5c613017565b5b828203905092915050565b6000612e7382612ece565b9050919050565b60008115159050919050565b6000819050919050565b60007fffffffff0000000000000000000000000000000000000000000000000000000082169050919050565b6000612ec782612e68565b9050919050565b600073ffffffffffffffffffffffffffffffffffffffff82169050919050565b6000819050919050565b82818337600083830152505050565b60005b83811015612f25578082015181840152602081019050612f0a565b83811115612f34576000848401525b50505050565b60006002820490506001821680612f5257607f821691505b60208210811415612f6657612f65613075565b5b50919050565b612f75826130d3565b810181811067ffffffffffffffff82111715612f9457612f936130a4565b5b80604052505050565b6000612fa882612eee565b91507fffffffffffffffffffffffffffffffffffffffffffffffffffffffffffffffff821415612fdb57612fda613017565b5b600182019050919050565b6000612ff182612eee565b9150612ffc83612eee565b92508261300c5761300b613046565b5b828206905092915050565b7f4e487b7100000000000000000000000000000000000000000000000000000000600052601160045260246000fd5b7f4e487b7100000000000000000000000000000000000000000000000000000000600052601260045260246000fd5b7f4e487b7100000000000000000000000000000000000000000000000000000000600052602260045260246000fd5b7f4e487b7100000000000000000000000000000000000000000000000000000000600052604160045260246000fd5b6000601f19601f8301169050919050565b7f4552433732313a207472616e7366657220746f206e6f6e20455243373231526560008201527f63656976657220696d706c656d656e7465720000000000000000000000000000602082015250565b7f4f776e61626c653a206e6577206f776e657220697320746865207a65726f206160008201527f6464726573730000000000000000000000000000000000000000000000000000602082015250565b7f4552433732313a207472616e736665722066726f6d20696e636f72726563742060008201527f6f776e6572000000000000000000000000000000000000000000000000000000602082015250565b7f4552433732313a20746f6b656e20616c7265616479206d696e74656400000000600082015250565b7f4552433732313a207472616e7366657220746f20746865207a65726f2061646460008201527f7265737300000000000000000000000000000000000000000000000000000000602082015250565b7f4552433732313a20617070726f766520746f2063616c6c657200000000000000600082015250565b7f496e73756666696369656e7420746f6b656e732072656d61696e696e67000000600082015250565b7f4552433732313a2061646472657373207a65726f206973206e6f74206120766160008201527f6c6964206f776e65720000000000000000000000000000000000000000000000602082015250565b7f4e6f6e2d6578697374656e7420746f6b656e0000000000000000000000000000600082015250565b7f4552433732313a20617070726f76652063616c6c6572206973206e6f7420746f60008201527f6b656e206f776e6572206e6f7220617070726f76656420666f7220616c6c0000602082015250565b7f4552433732313a206d696e7420746f20746865207a65726f2061646472657373600082015250565b7f4f776e61626c653a2063616c6c6572206973206e6f7420746865206f776e6572600082015250565b7f4552433732313a20696e76616c696420746f6b656e2049440000000000000000600082015250565b7f4552433732313a20617070726f76616c20746f2063757272656e74206f776e6560008201527f7200000000000000000000000000000000000000000000000000000000000000602082015250565b7f4552433732313a2063616c6c6572206973206e6f7420746f6b656e206f776e6560008201527f72206e6f7220617070726f766564000000000000000000000000000000000000602082015250565b7f5265656e7472616e637947756172643a207265656e7472616e742063616c6c00600082015250565b7f2f00000000000000000000000000000000000000000000000000000000000000600082015250565b6134d681612e68565b81146134e157600080fd5b50565b6134ed81612e7a565b81146134f857600080fd5b50565b61350481612e86565b811461350f57600080fd5b50565b61351b81612e90565b811461352657600080fd5b50565b61353281612ebc565b811461353d57600080fd5b50565b61354981612eee565b811461355457600080fd5b5056fea26469706673582212207afda0213802c50ba63f011f974a4948dc963b1ea9d0503d870c3edf69567d6764736f6c63430008040033",
  "linkReferences": {},
  "deployedLinkReferences": {}
}